:100000000C945D000C9485000C9485000C94850084
:100010000C9485000C9485000C94A8140C94850015
:100020000C9485000C9485000C9485000C9485003C
:100030000C9485000C9485000C9485000C9485002C
:100040000C9492060C9485000C9460060C943A066D
:100050000C9485000C9485000C9485000C9485000C
:100060000C9485000C9485000000000024002700FB
:100070002A0000000000250028002B0004040404CE
:100080000404040402020202020203030303030342
:10009000010204081020408001020408102001021F
:1000A00004081020000000080002010000030407FB
:1000B0000000000000000000A11511241FBECFEFBA
:1000C000D8E0DEBFCDBF11E0A0E0B1E0E2E5F3E3B0
:1000D00002C005900D92A637B107D9F722E0A6E736
:1000E000B1E001C01D92AF3AB207E1F710E0CDE5F3
:1000F000D0E004C02197FE010E949119CC35D107B0
:10010000C9F70E94AB140C94A7190C940000EEEAF6
:10011000F0E02491EAE9F0E09491E6E8F0E0E4917F
:10012000EE23C9F0222339F0233001F1A8F4213065
:1001300019F1223029F1F0E0EE0FFF1FEE58FF4FCA
:10014000A591B4912FB7F894EC91811126C09095A8
:100150009E239C932FBF08952730A9F02830C9F023
:10016000243049F7209180002F7D03C0209180002A
:100170002F7720938000DFCF24B52F7724BDDBCFEE
:1001800024B52F7DFBCF2091B0002F772093B000B6
:10019000D2CF2091B0002F7DF9CF9E2BDACFAF9236
:1001A000BF92CF92DF92EF92FF920F931F93CF9364
:1001B000DF936C017B018B01040F151FEB015E01C6
:1001C000AE18BF08C017D10759F06991D601ED915B
:1001D000FC910190F081E02DC6010995892B79F7FA
:1001E000C501DF91CF911F910F91FF90EF90DF90AC
:1001F000CF90BF90AF900895FC01538D448D252F73
:1002000030E0842F90E0821B930B541710F0CF96B0
:10021000089501970895FC01918D828D981761F0E2
:10022000A28DAE0FBF2FB11D5D968C91928D9F5FF9
:100230009F73928F90E008958FEF9FEF0895FC01D8
:10024000918D828D981731F0828DE80FF11D858D8B
:1002500090E008958FEF9FEF0895FC01918D228D1E
:10026000892F90E0805C9F4F821B91098F739927A3
:10027000089586EE91E00E942D0121E0892B09F47A
:1002800020E0822F08950E94390181110C94000012
:10029000089580E090E0892B11F00C9443010895BB
:1002A000FC01A48DA80FB92FB11DA35ABF4F2C91EB
:1002B000848D90E001968F739927848FA689B789E2
:1002C0002C93A089B1898C91837080648C93938DD9
:1002D000848D981306C00288F389E02D80818F7D7C
:1002E00080830895EF92FF920F931F93CF93DF9334
:1002F000EC0181E0888F9B8D8C8D98131AC0E88962
:10030000F989808185FF15C09FB7F894EE89FF8930
:100310006083E889F98980818370806480839FBFCE
:1003200081E090E0DF91CF911F910F91FF90EF90CE
:100330000895F62E0B8D10E00F5F1F4F0F731127DE
:10034000E02E8C8D8E110CC00FB607FCFACFE88919
:10035000F989808185FFF5CFCE010E945001F1CF50
:10036000EB8DEC0FFD2FF11DE35AFF4FF0829FB78D
:10037000F8940B8FEA89FB8980818062CFCFCF937D
:10038000DF93EC01888D8823B9F0AA89BB89E889BD
:10039000F9898C9185FD03C0808186FD0DC00FB663
:1003A00007FCF7CF8C9185FFF2CF808185FFEDCFE1
:1003B000CE010E945001E9CFDF91CF910895CF93F4
:1003C000DF9390E0FC01E057FF4F249184589F4F4A
:1003D000FC0184918823D1F090E0880F991FFC01E3
:1003E000E859FF4FA591B491FC01EE58FF4FC5911C
:1003F000D49161110EC09FB7F8948C91E22FE095D3
:100400008E238C932881E223E8839FBFDF91CF91D5
:1004100008958FB7F894EC91E22BEC938FBFF6CF51
:100420003FB7F8948091900190919101A091920131
:10043000B091930126B5A89B05C02F3F19F00196F6
:10044000A11DB11D3FBFBA2FA92F982F8827BC012E
:10045000CD01620F711D811D911D42E0660F771F56
:10046000881F991F4A95D1F70895FC01019000203B
:10047000E9F73197AF01481B590BBC0186EE91E0BB
:100480000C94CF008F929F92AF92BF920F931F93C5
:10049000CF93DF93CDB7DEB7A1970FB6F894DEBF49
:1004A0000FBECDBF19A2423008F44AE08E010F5DA5
:1004B0001F4F842E912CB12CA12CA50194010E94D8
:1004C0001D17E62FB901CA01EA30F4F4E05DD80146
:1004D000EE938D01232B242B252B79F790E080E0E0
:1004E000109719F0CD010E943502A1960FB6F8942D
:1004F000DEBF0FBECDBFDF91CF911F910F91BF9097
:10050000AF909F908F900895E95CE1CF4F925F92FA
:100510006F927F928F929F92AF92BF92CF92DF9213
:10052000EF92FF920F931F93CF936B017C01742E78
:10053000AC019B010E948C19882399F08DE191E018
:10054000CF911F910F91FF90EF90DF90CF90BF90D0
:10055000AF909F908F907F906F905F904F900C9492
:10056000350246015701E894B7F82FEF3FEF4FE708
:100570005FE7C501B4010E948C1981110DC02FEFF6
:100580003FEF4FE75FE7C501B4010E94BB171816A4
:100590001CF481E291E0D4CF2FEF3FEF4FE75FE40F
:1005A000C701B6010E941A1918161CF485E291E0E1
:1005B000C7CF2FEF3FEF4FE75FECC701B6010E94B7
:1005C000BB1787FDF3CF20E030E0A901C701B601DA
:1005D0000E94BB1710E000E087FF0AC06DE286EEC4
:1005E00091E00E9472018C01F7FAF094F7F8F09410
:1005F000C0E060E070E080E09FE37C1641F020E026
:1006000030E040E251E40E94C017CF5FF6CFA7016F
:1006100096010E944F172B013C010E9439184B0193
:100620005C014AE00E9442027C01E00EF11ECC23F4
:10063000C1F1C501B4010E9468189B01AC01C3015E
:10064000B2010E944E174B015C016EE286EE91E012
:100650000E947201E80EF91EC15018F120E030E04E
:1006600040E251E4C501B4010E941F192B013C0175
:100670000E9439184B01B12CA12C4AE0C501B401EC
:100680000E944202E80EF91EC501B4010E946818DA
:100690009B01AC01C301B2010E944E174B015C01EA
:1006A000DBCFC701CF911F910F91FF90EF90DF90AB
:1006B000CF90BF90AF909F908F907F906F905F9002
:1006C0004F900895CF93DF9300D000D0CDB7DEB721
:1006D00061E08AE00E94DF0184E0482E80E2582E2B
:1006E000612C712C9EEAA92E90E0B92E8091820196
:1006F000909183010097F1F30E94A90D8130B1F729
:1007000060917E0170917F018091800190918101C3
:100710000E9432189B01AC012E5F3F4E4F4F5F4F3E
:10072000AFEFB0E00E941217A30192010E94F316EE
:10073000CA01B9010E946A1869837A838B839C83FA
:1007400089E291E00E94350269817A818B819C81E6
:1007500042E00E94860280E391E00E9435026981B6
:100760007A818B819C810E9432186B018B0161E040
:100770008AE00E94DF01C114D10461F480E00E948C
:10078000870080918201909183010E947E0C0E94DB
:10079000700CACCF0F3F110511F481E0F0CFF501E3
:1007A0008491833019F140F48130B1F08230C9F086
:1007B0000038110594F7E2CF873011F1883041F10C
:1007C0008430B1F780918000806280938000D09265
:1007D0008B00C0928A00D5CF84B5806884BDC7BC29
:1007E000D0CF84B5806284BDC8BCCBCF809180005F
:1007F000806880938000D0928900C0928800C1CF29
:100800008091B00080688093B000C092B300B9CFEF
:100810008091B00080628093B000C092B400B1CFEC
:10082000CF93DF93CDB7DEB7A4970FB6F894DEBFB2
:100830000FBECDBF80E090E0A8ECB2E48D839E8334
:10084000AF83B8878DEC9CECACECBDE389879A87CD
:10085000AB87BC8740E050E060E271E44D875E8783
:100860006F87788B898B9A8BAB8BBC8B89849A84AE
:10087000AB84BC846D857E858F859889CD80DE8034
:10088000EF80F8849B01AC010E944F179B01AC01E3
:10089000C501B4010E94C01720E030E040E85FE3EA
:1008A0000E944F17A70196010E941F196D8B7E8B26
:1008B0008F8B988F6D817E818F8198852D853E8568
:1008C0004F8558890E94C017698F7A8F8B8F9C8FB4
:1008D0006D817E818F81988529893A894B895C89D0
:1008E0000E941F196D8F7E8F8F8F98A3C12CD12CE2
:1008F000760180918201909183010097F1F30E942B
:10090000A90D8130B1F760917C0170917D018090DB
:10091000000190900101A0900201B0900301072E08
:10092000000C880B990B0E946A18A50194010E9483
:100930004E1769837A838B839C8383E391E00E94C3
:10094000350269817A818B819C8142E00E94860216
:1009500080E391E00E9435028D899E89AF89B88D30
:1009600089A39AA3ABA3BCA349805A806B807C80E7
:10097000698D7A8D8B8D9C8D29853A854B855C851B
:1009800089809A80AB80BC800E941F19A5019401C8
:100990000E941F199B01AC01C701B6010E944F17AD
:1009A0006B017C0160917A0170917B0180917C01E7
:1009B00090917D018D8C9E8CAF8CB8A0681B790BBB
:1009C000072E000C880B990B0E946A18A501940150
:1009D0000E941F194B015C01A301920169A17AA138
:1009E0008BA19CA10E941F19A70196010E944F177D
:1009F0009B01AC01C501B4010E944F1760937E01B9
:100A000070937F0180938001909381018091820196
:100A1000909183010E947E0C0E94700C6ACFCF934C
:100A2000DF9300D000D0CDB7DEB760E08EE00E944B
:100A3000DF0110E492E5892E99249394A12CB12C26
:100A400080918201909183010097F1F30E94A90D9A
:100A50008130B1F710937C0080917A00806480939C
:100A60007A0080917A0086FDFCCF809178006091B9
:100A70007900762F682F072E000C880B990B0E94A7
:100A80006A1869837A838B839C8380917C0190911F
:100A90007D0190937B0180937A0169817A818B81BA
:100AA0009C810E9432189B01AC01245131094109FB
:100AB0005109A5EAB0E00E941217A50194010E9415
:100AC000F316285231094109510930937D012093D1
:100AD0007C018BE391E00E943502C0907C01D090B4
:100AE0007D010D2C000CEE08FF084AE0C701B6019D
:100AF000F7FE0DC06DE286EE91E00E94720166275E
:100B00007727CB016C197D098E099F094AE00E9465
:100B1000420280E391E00E9435020E9410022B0104
:100B20003C018AE0C82ED12CE12CF12C0E9410024D
:100B30006419750986099709683E73408105910516
:100B4000A8F321E0C21AD108E108F10888EE480EA6
:100B500083E0581E611C711CC114D104E104F1042E
:100B600029F780918201909183010E947E0C0E945E
:100B7000700C66CF0F931F93CF93DF93E091F60134
:100B8000F091F70182E08083E091F201F091F301AE
:100B90001082E091F401F091F5018FEC80831092C6
:100BA000FE01E091FA01F091FB0186E08083E09183
:100BB000F801F091F901808180618083E091F80172
:100BC000F091F901808188608083E091F801F091D3
:100BD000F901808180688083E091F801F091F9014A
:100BE00080818F7D80838FE190E00E945D13EC0116
:100BF000009781F09983888381E08B8F1C8ECE01D2
:100C00000E94BA091D821C82198218821E82CE019E
:100C10000E947E0CD0938301C0938201CD2B41F0C2
:100C200089E491E00E94350280E391E00E94350260
:100C300010E000E022E040E850E066E571E08FE07F
:100C400095E00E947B1321E040E850E061E671E00E
:100C500080E194E00E947B1320E040E850E065E6EC
:100C600071E082E693E00E947B13DF91CF911F91A8
:100C70000F9108951F920F920FB60F9211242F9388
:100C80003F934F935F936F937F938F939F93AF9314
:100C9000BF93EF93FF9386EE91E00E945001FF9186
:100CA000EF91BF91AF919F918F917F916F915F91E4
:100CB0004F913F912F910F900FBE0F901F9018955D
:100CC0001F920F920FB60F9211242F938F939F9321
:100CD000EF93FF93E091F601F091F7018081E091AD
:100CE000FC01F091FD0182FD1BC090818091FF010C
:100CF0008F5F8F7320910002821741F0E091FF0116
:100D0000F0E0EA51FE4F958F8093FF01FF91EF9144
:100D10009F918F912F910F900FBE0F901F9018955C
:100D20008081F4CF1F920F920FB60F9211242F9350
:100D30003F938F939F93AF93BF9380918C0190913A
:100D40008D01A0918E01B0918F0130918B0123E034
:100D5000230F2D3758F50196A11DB11D20938B014E
:100D600080938C0190938D01A0938E01B0938F019D
:100D70008091900190919101A0919201B091930185
:100D80000196A11DB11D8093900190939101A093B4
:100D90009201B0939301BF91AF919F918F913F9139
:100DA0002F910F900FBE0F901F90189526E8230FDC
:100DB0000296A11DB11DD2CFE091B401F091B50111
:100DC0008081811107C08FEF9FEF9093AF018093D7
:100DD000AE010895E091B401F091B5010580F6816E
:100DE000E02D80819181F1CFFC01DB010FB6F894F9
:100DF0000F9240918302509184022D913C91119762
:100E00002F3F320711F181819281609185027081BB
:100E1000761749F04817590730F01D921C9281E06F
:100E20000F900FBE0895481B590B42175307A8F7A0
:100E3000241B350B2D933C938091850280838091F8
:100E40008302909184029283818380E0E9CFCF93E3
:100E5000DF93DC011596ED91FC910680F781E02D82
:100E6000A489B5898685978520893189EC013D83E0
:100E70002C83C089D1899B838A83CF010C961196DC
:100E80002D913C9112972817390721F41296DC9383
:100E9000CE931197158A148A2C9121502C9320916E
:100EA0008701211157C0A285B38584819581268150
:100EB0003781EC013D832C83C681D7819B838A8354
:100EC000CF01029611962D913C9112972817390760
:100ED00021F41296DC93CE931197138612862C91EF
:100EE00021502C93C6892091AA022C1710F4C0938C
:100EF000AA0229E02C9FE0011124CA57DD4F098086
:100F0000DA81C02DD583C4834C815D8157834683AC
:100F1000AC81BD8113969C938E9312979D838C8395
:100F2000A689A29FD0011124AA57BD4FB387A287DB
:100F30008C918F5F8C93A0917601B0917701968907
:100F400056968C91891730F581E080938601DF9168
:100F5000CF910895A091C901B091CA01B787A68722
:100F600014962D913C911597318B208B1496CD9131
:100F7000DC9115979B838A8315969C938E93149787
:100F800088EC91E0958B848B8091C8018F5F809372
:100F9000C801D1CF80E0DBCF0FB6F8940F928091DB
:100FA0008302909184020F900FBE08958091870173
:100FB0008F5F8093870108950FB6F8940F92FC011C
:100FC000928D0F900FBE81E0911180E00895EF9215
:100FD000FF920F931F93CF93DF93EC010FB6F8941A
:100FE0000F921E8D7C0181E1E80EF11C01E01116CB
:100FF000D4F08FEF8E8F0F900FBE0FB6F8940F9234
:101000001D8D7E0188E0E80EF11C01E01116B4F0A0
:101010008FEF8D8F0F900FBEDF91CF911F910F91AA
:10102000FF90EF9008958989882319F3C7010E94E2
:1010300027078111009386011150D9CF8885882315
:1010400039F3C7010E9427078111009386011150CF
:10105000DDCFCF93DF93FC01A085B18582819381A1
:1010600024813581EC013D832C83C481D5819B8310
:101070008A8311968D919C9112978E179F0721F468
:101080001296DC93CE931197118610868C91815025
:101090008C938C91DF91CF9108950F931F93CF93F1
:1010A000DF938C01FB0180819181D80113968F3FE2
:1010B0009807F1F4E801AF81B88512968D919C9163
:1010C000139793838283EC01FD83EC83B583A48320
:1010D0001396FC93EE93129711870087F801808195
:1010E0008F5F8083DF91CF911F910F910895D90178
:1010F00012962D913C911397E901488159818417EB
:101100009507A8F7DACFFC01738362839187808704
:101110004617570790F0421B530B84859585481757
:101120005907C8F4BF016E5F7F4F80919401909181
:1011300095010E944D0880E008954217530718F466
:101140006217730740F4BF016E5F7F4F8091960175
:1011500090919701EECF81E00895EF92FF920F9367
:101160001F93CF93DF93EC018B017A016C857D8512
:10117000600F711F9801A701CE010E9483088111A1
:1011800007C0DF91CF911F910F91FF90EF900895CD
:101190008C859D85080F191FE889F989CE0109956D
:1011A000E5CFEF92FF920F931F93CF93DF938C01C4
:1011B0007B01E0919601F09197010580F681E02D89
:1011C000C681D781CE0102960E9429088A8982FFB2
:1011D0000FC0A701B801CE010E94AD08E889F989C6
:1011E000CE01DF91CF911F910F91FF90EF90099465
:1011F0008E7F8A8BF3CFE0919601F09197018081E9
:1012000081110DC080919401909195019093970167
:1012100080939601F0939501E093940108950580E1
:10122000F681E02D6FEF7FEF808191810E94D108E0
:10123000E2CFFF920F931F93CF93DF93EC01F62E33
:101240000091830210918402809176019091770140
:1012500002960E942908CF3FDC07E9F5FF20D9F16B
:10126000E091B701F091B801A0917601B0917701BA
:101270001596FC93EE931497A0917601B0917701A7
:101280008481958117969C938E9316978091760111
:1012900090917701A481B581029613969C938E93C9
:1012A00012978091760190917701029695838483BD
:1012B000E0917601F091770186EB91E09387828748
:1012C0008091B6018F5F8093B601DF91CF911F911E
:1012D0000F91FF900895C00FD11FE0917601F0911A
:1012E0007701D383C2836091760170917701C01733
:1012F000D10768F48091B2019091B3016E5F7F4F86
:10130000DF91CF911F910F91FF900C944D08809128
:10131000B4019091B5016E5F7F4F0E944D0880919E
:10132000AE019091AF01C817D90778F6D093AF01FD
:10133000C093AE01CACFCF93DF93EB0160917601EA
:1013400070917701645F7F4F0E944D0861E0CE018C
:10135000DF91CF910C941909FC010396928381834C
:101360002FEF3FEF34832383968385839087878392
:1013700010820895CF93DF93EC010FB6F8940F928B
:10138000888199812B8D4C8DBC01249F600D711D2E
:1013900011247D836C831A8E9B838A832150330BA7
:1013A000429FB001439F700D1124860F971F9F83AA
:1013B0008E838FEF8D8F8E8FCE0108960E94AC09A1
:1013C000CE0141960E94AC090F900FBE81E0DF91E3
:1013D000CF9108950F920FB6F8940F921F92112497
:1013E0002F923F924F925F926F927F928F929F9235
:1013F000AF92BF92CF92DF92EF92FF920F931F9323
:101400002F933F934F935F936F937F938F939F930C
:10141000AF93BF93CF93DF93EF93FF93A0917601A8
:10142000B09177010DB60D920EB60D9280918701A5
:10143000882321F081E0809386015FC010928601AD
:10144000A0917601B0917701E0917601F09177015A
:101450002D913C918789908D82179307A8F08091F8
:101460007601909177018091760190917701259A8C
:101470002D9A2FEF87EA91E6215080409040E1F7C6
:1014800000C000001D9AF5CF2091AA0289E001C09A
:101490002150422F50E0849FF001859FF00D1124D0
:1014A000EA57FD4F9081992399F3A181B281129659
:1014B0000D90BC91A02DB283A183289FC00111245F
:1014C00087579D4FA817B90729F412968D919C91C3
:1014D0009283818389E0849FF001859FF00D112420
:1014E000EA57FD4F0180F281E02D8681978190932C
:1014F0007701809376012093AA02A0917601B091A2
:101500007701CD91CDBFDD91DEBFFF91EF91DF91EE
:10151000CF91BF91AF919F918F917F916F915F918B
:101520004F913F912F911F910F91FF90EF90DF907E
:10153000CF90BF90AF909F908F907F906F905F9073
:101540004F903F902F901F900F900FBE0F900895D7
:101550008F929F92BF92CF92DF92EF92FF920F9362
:101560001F93CF93DF930FB6F8940F92809187016A
:1015700081508093870180918701882379F080E0F2
:101580000F900FBEDF91CF911F910F91FF90EF90C1
:10159000DF90CF90BF909F908F9008958091E5014C
:1015A000882369F3E090CD01F090CE01F0E0E0E017
:1015B00039E041E08091C80181115EC0EF2B11F04C
:1015C0000E94DC06E0908401F0908501E114F104B2
:1015D00009F47DC189E0D82ECC24C3940FEF1FEF0E
:1015E00080918701811161C1C0918302D0918402F1
:1015F0004E018FEF881A980A90928402809283029B
:1016000081149104B9F48091B4019091B5012091B5
:10161000B2013091B3013093B5012093B40190939E
:10162000B3018093B201809185028F5F8093850220
:101630000E94DC068091AE019091AF01B12C88161A
:10164000990608F026C1E0917601F0917701E689CC
:10165000DE9EF0011124EA57FD4F8081823010F0A8
:10166000BB24B39480918601811103C0BB2009F48F
:1016700025C1C092860122C1D7011696ED91FC9139
:10168000A489B5896685778580899189EB019D83D9
:101690008C8380899189EC017B836A83BF01645FBD
:1016A0007F4F11960D911C9112970617170721F481
:1016B00012969C938E931197158A148A8C9181505F
:1016C0008C93A285B3858481958166817781EC01B5
:1016D0007D836C8366817781EB019B838A83CF0155
:1016E000029611960D911C9112970817190721F473
:1016F00012967C936E931197138612862C9121502B
:101700002C93A6892091AA022A1710F4A093AA026A
:101710003A9FD0011124AA57BD4F11960D90BC914C
:10172000A02DB583A48314966D917C911597778332
:10173000668314966D917C911597EB019B838A8348
:1017400015969C938E9314979689939FD00111249C
:10175000AA57BD4FB387A2878C918F5F8C93A091BE
:101760007601B091770156968C91981708F422CFA4
:10177000409386011FCFE091B401F091B50105803F
:10178000F681E02D0680F781E02D82819381881615
:10179000990628F49093AF018093AE0154CFC2858F
:1017A000D3858481958126813781DC0115963C9310
:1017B0002E93149726813781D90113969C938E938B
:1017C0001297CF01029649815A814817590711F49F
:1017D0003A83298313861286288121502883A4897D
:1017E000B5891097F9F02685378540895189E90137
:1017F0005D834C8340895189EA013B832A8311969A
:101800006D917C9112979F01245F3F4F6217730780
:1018100021F412965C934E931197158A148A2C9199
:1018200021502C93A6892091AA022A1710F4A09384
:10183000AA02DA9ED0011124AA57BD4F11960D902D
:10184000BC91A02DB583A48314962D913C9115973E
:101850003783268314962D913C911597E9019B833C
:101860008A8315969C938E93149796899D9DD0019B
:101870001124AA57BD4FB387A2878C918F5F8C9399
:10188000E0917601F09177018689981710F0BB24DA
:10189000B394E091B401F091B501808181116BCFD7
:1018A0001093AF010093AE01CECE80918401909150
:1018B000850101969093850180938401D1E0ED1A12
:1018C000F10809F08DCE109285011092840180916B
:1018D0008601882309F453CE0E94EA0981E050CEA4
:1018E0000E94D60760E08AE090E00E9419090E94F9
:1018F000A80A811102C00E94EA090895AF92BF921E
:10190000DF92EF92FF920F931F93CF93DF9300D05C
:1019100000D01F92CDB7DEB78C011D821C8280E003
:10192000780198E0E90EF11C0FB6F8940F92D801F7
:101930005A962C915A975B969C915B97291708F0C1
:10194000B0C05A96DC905A975C964C915C974111C6
:101950008CC08D919C91892B11F080E00AC0F80118
:10196000E480F580E114F10431F580E0F80115829E
:101970001482D394D8015A96DC925A9751969C912E
:10198000992321F0C80141960E94270781110E94E6
:10199000EA090F900FBE81E00F900F900F900F900B
:1019A0000F90DF91CF911F910F91FF90EF90DF90FB
:1019B000BF90AF900895D70192968C9192978150E5
:1019C00092968C93929756962C91569791969C91BD
:1019D000291759F28111C9CF5701B2E0AB0EB11CE2
:1019E000C5010E942908F70181A1868B482F50E08C
:1019F00024E030E0241B350B358724879091AA0220
:101A0000981710F48093AA0289E0849FD001859FE3
:101A1000B00D1124AA57BD4F11960D90BC91A02D69
:101A2000F701B583A48314962D913C9115973783C4
:101A300026831496ED91FC911597B382A282159698
:101A4000BC92AE921497D7015696EC915697E89FA8
:101A5000F0011124EA57FD4F1B96FC93EE931A9761
:101A600080818F5F808381E081CF50E070E060E013
:101A700012968D919C910E949719F801848D228174
:101A80003381820F932F911D93838283248135812B
:101A90008217930708F461CF8081918193838283B9
:101AA0005CCF2C813D81232B21F40F900FBE80E071
:101AB00073CF811109C0809185028983809183024F
:101AC000909184029B838A830F900FBE0E94D60759
:101AD0000FB6F8940F92F801858D8F3F09F4158E9B
:101AE000D8015E968C915E978F3F11F45E961C92A2
:101AF0000F900FBEBE016C5F7F4FCE0101960E941A
:101B0000F406811120C00FB6F8940F92F801928D5F
:101B1000838D0F900FBE981310C06C817D81C7011B
:101B20000E949B09C8010E94E7070E94A80A811130
:101B300002C00E94EA0981E0F7CEC8010E94E707CF
:101B40000E94A80AF8CFC8010E94E7070E94A80ACD
:101B5000AECF7F928F929F92AF92BF92CF92DF9241
:101B6000EF92FF920F931F93CF93DF9300D000D09B
:101B70001F92CDB7DEB78C018AE090E09D838C8305
:101B8000D12C90E0580121E1A20EB11C89E0782E01
:101B900024E0822E912C0FB6F8940F92D8015A9619
:101BA0008C915A97882309F440C081505A968C939F
:101BB0005A978D919C91892BA1F4809176019091F7
:101BC0007701892B39F0E0917601F091770182A1BC
:101BD0008F5F82A38091760190917701F8019583C0
:101BE0008483D80118968C91882339F0C80108960F
:101BF0000E94270781110E94EA090F900FBEDD2481
:101C0000D3948D2D0F900F900F900F900F90DF9128
:101C1000CF911F910F91FF90EF90DF90CF90BF90E9
:101C2000AF909F908F907F9008952C813D81232BC2
:101C300021F40F900FBED12CE4CF911109C08091F7
:101C40008502898380918302909184029B838A8399
:101C50000F900FBE0E94D6070FB6F8940F92F801AE
:101C6000858D8F3F09F4158ED8015E968C915E9715
:101C70008F3F11F45E961C920F900FBEBE016C5FF9
:101C80007F4FCE0101960E94F4068111AEC0C801BB
:101C90000E94DC07882309F4A2C0F80180819181A9
:101CA000892B09F076C00FB6F8940F92E480F58086
:101CB000E114F10409F491C0F7018689E0917601FD
:101CC000F09177019689891708F07BC0D7011C969F
:101CD0002D913C911D9737FD0CC0E0917601F0915C
:101CE000770196899401291B31091D963C932E9307
:101CF0001C97879DC00111248A579D4FF7012285AB
:101D000033852817390709F054C06701F2E0CF0E78
:101D1000D11CC6010E942908E0917601F09177015B
:101D2000E689D7015696EC938091AA028E1710F49B
:101D3000E093AA027E9EF0011124EA57FD4F018034
:101D4000F281E02DD7011596FC93EE9314978481D0
:101D5000958117969C938E931697A481B5811396BF
:101D6000DC92CE921297D582C482D7015696EC911E
:101D70005697E79DF0011124EA57FD4F1B96FC93FF
:101D8000EE931A9780818F5F8083DD24D3940F9028
:101D90000FBE6C817D81C5010E949B09C8010E9414
:101DA000E7070E94A80A811102C00E94EA0991E097
:101DB000F2CEE0917601F09177018689F701868B6A
:101DC000E4CFE0917601F0917701DD24D394D7013F
:101DD00091969C9186899817D0F2D12CD8CFC801C2
:101DE0000E94E7070E94A80AE2CFC8010E94E70705
:101DF0000E94A80AC8010E94DC078823C1F2DD20E6
:101E000009F4FFCE0FB6F8940F92F8018189882368
:101E100009F47BC00688F789E02D908184E0891B56
:101E2000D80114960D911C910115110509F401CFEB
:101E3000F80191A1981708F4982FD80156968C9123
:101E40005697981709F4F5CE92962C9192972130D7
:101E500009F0EFCE56969C9356971C962D913C9187
:101E60001D9737FD08C024E030E0291B31091D967D
:101E70003C932E931C97B9E08B9FC00111248A5785
:101E80009D4FF801228533852817390709F0D1CEF7
:101E90007801F2E0EF0EF11CC7010E942908F80159
:101EA000A6898091AA028A1710F4A093AA0289E059
:101EB0008A9FD0011124AA57BD4F11960D90BC9155
:101EC000A02DF801B583A48314962D913C9115970C
:101ED000378326831496ED91FC911597F382E28265
:101EE0001596FC92EE921497D8015696EC9156975F
:101EF000E89FF0011124EA57FD4F1B96FC93EE93E7
:101F00001A9780818F5F808394CE80E089CF0F9273
:101F10000FB6F8940F921F9211242F923F924F9276
:101F20005F926F927F928F929F92AF92BF92CF9269
:101F3000DF92EF92FF920F931F932F933F934F9354
:101F40005F936F937F938F939F93AF93BF93CF9341
:101F5000DF93EF93FF93A0917601B09177010DB6D7
:101F60000D920EB60D9213BE809187018111F9C0BA
:101F700080918302909184020196909384028093D1
:101F80008302009781F52091B4013091B501409111
:101F9000B2015091B3015093B5014093B401309315
:101FA000B3012093B201209185022F5F2093850217
:101FB000E091B401F091B5012081211107C02FEF0C
:101FC0003FEF3093AF012093AE010DC0E091B4011B
:101FD000F091B5010580F681E02D208131813093AB
:101FE000AF012093AE012091AE013091AF01821775
:101FF000930710F420E0A1C020E039E0D32EE09157
:10200000B401F091B5013081311107C08FEF9FEF1E
:102010009093AF018093AE0190C0E091B401F09134
:10202000B5010580F681E02D0680F781E02D428123
:1020300053818417950728F45093AF014093AE0164
:102040007CC0A285B3854481558166817781EA0190
:102050007D836C8366817781EB015B834A83AF016B
:102060004E5F5F4F11960D911C9112970417150743
:1020700021F412967C936E931197138612863C91ED
:1020800031503C93A489B5891097F9F0668577851E
:1020900000891189EB011D830C8300891189E801F6
:1020A0007B836A831196ED90FC901297BF01645F69
:1020B0007F4FE616F70621F412961C930E931197A4
:1020C000158A148A3C9131503C93A6893091AA021A
:1020D0003A1710F4A093AA02DA9ED0011124AA574D
:1020E000BD4F11960D90BC91A02DB583A48314967D
:1020F0006D917C9115977783668314966D917C9191
:102100001597EB015B834A8315965C934E93149766
:1021100046894D9DD0011124AA57BD4FB387A28790
:102120003C913F5F3C93E0917601F09177013689D5
:10213000431708F464CF21E062CFE0917601F0917B
:102140007701E689D9E0ED9FF0011124EA57FD4FB0
:102150008081823008F021E08091860181110EC0DB
:102160000AC0809184019091850101969093850128
:10217000809384016AC0222309F467C0809187019B
:10218000882321F081E0809386015FC01092860150
:10219000A0917601B0917701E0917601F0917701FD
:1021A0002D913C918789908D82179307A8F080919B
:1021B0007601909177018091760190917701259A2F
:1021C0002D9A2FEF87EA91E6215080409040E1F769
:1021D00000C000001D9AF5CF2091AA0289E001C03D
:1021E0002150422F50E0849FF001859FF00D112473
:1021F000EA57FD4F9081992399F3A181B2811296FC
:102200000D90BC91A02DB283A183289FC001112401
:1022100087579D4FA817B90729F412968D919C9165
:102220009283818389E0849FF001859FF00D1124C2
:10223000EA57FD4F0180F281E02D868197819093CE
:102240007701809376012093AA02A0917601B09144
:102250007701CD91CDBFDD91DEBFFF91EF91DF9191
:10226000CF91BF91AF919F918F917F916F915F912E
:102270004F913F912F911F910F91FF90EF90DF9021
:10228000CF90BF90AF909F908F907F906F905F9016
:102290004F903F902F901F900F900FBE0F9008957A
:1022A000CF93DF93009751F0EC010E94D607CE0147
:1022B0000E946A16DF91CF910C94A80ADF91CF910A
:1022C0000895CF93DF93CDB7DEB72A970FB6F89472
:1022D000DEBF0FBECDBFE0919601F0919701108156
:1022E000F12CE12C112329F00580F681E02DE0800E
:1022F000F1800E94D6070E94CC076C018091890171
:1023000090918A01C816D90608F08CC00E94FB087B
:10231000D0928A01C09289010E94A80A0091AC0162
:102320001091AD011A86198680E06801F1E1CF0EA7
:10233000D11C0FB6F8940F92D8015A96FC905A9778
:10234000FF2009F430C15C964C915C97442301F165
:1023500050E016968D919C911797840F951F1796B4
:102360009C938E93169714962D913C9115978217F6
:10237000930738F08D919C91119717969C938E93AB
:102380001697F80166817781CE0101960E94971910
:10239000FA94D8015A96FC925A9718968C918823F1
:1023A00039F0C80108960E94270781110E94EA09A6
:1023B0000F900FBED980D7FCB1CF0C811D81D80101
:1023C0001A968D919C91892B21F0C80102960E944A
:1023D00029080E94CC077C018091890190918A0193
:1023E000E816F90610F40E94FB08F0928A01E092C8
:1023F0008901EFEFED0DE93008F090CF0E2E000CC3
:10240000FF0BE75FFD4ED80152968C9152970C94CA
:1024100091198C128C12CF12B712C9128C128C1215
:10242000CF12B712D0928A01C0928901112351F0C4
:10243000CE14DF0470F00E94A80AB601C7010E9402
:10244000D1086CCFE0919401F0919501808161E019
:10245000811160E00091AC011091AD010FB6F894CC
:102460000F92D8015D968C915D978F3F11F45D9628
:102470001C92F801868D8F3F09F4168E0F900FBEC7
:10248000D8015A968C915A9781113CC05296ED9181
:10249000FC91A0917601B09177011F96FC93EE9389
:1024A0001E97A0917601B091770184819581519614
:1024B0009C938E9350978091760190917701A4819F
:1024C000B5810C9613969C938E931297809176010A
:1024D000909177010C9695838483E0917601F09139
:1024E0007701C8014196958B848BF80181898F5FB4
:1024F000818BC7018C199D09662311F08FEF9FEF27
:102500000E941909C8010E94E7070E94A80A8111C8
:1025100005CF0E94EA0902CF8160F801828BCA8050
:10252000DB80648575856C0D7D1D9601A701C80152
:102530000E948308882309F4F1CED80152968C9129
:10254000529782FF10C01C966D917C916C0D7D1D81
:10255000A701C8010E94AD08D8015096ED91FC91E9
:10256000C8010995DBCE8E7FF801828BF5CF8160A3
:1025700052968C9352976A817B811D967C936E93C1
:102580001C976E0D7F1D9701A701C8010E9483084B
:10259000C5CE81FD04C0C8010E945011BFCE8E7F00
:1025A000F801828BBBCE29853A85232B19F40F9035
:1025B0000FBE91CE811109C0809185028E838091DA
:1025C00083029091840298878F830F900FBE0E94A0
:1025D000D6070FB6F8940F92F801858D8F3F09F456
:1025E000158ED8015E968C915E978F3F11F45E96A2
:1025F0001C920F900FBEBE01675F7F4FCE01069603
:102600000E94F40681111BC0C8010E94DC078823C8
:1026100081F069857A85C6010E949B09C8010E94E4
:10262000E7070E94A80A811102C00E94EA0981E01E
:1026300080CEC8010E94E7070E94A80AF8CFC8010F
:102640000E94E7070E94A80AC8010E94DC078823AD
:1026500071F341CE00E010E08091880181110CC03F
:1026600080918602823010F00E94EA09011511055E
:1026700099F30E944301F0CF0FB6F8940F92E091C6
:10268000C401F091C501C681D781CE0102960E9496
:1026900029088091E50181508093E50180918801AE
:1026A0008150809388010F900FBE8F89988D0E9472
:1026B0005011CE010E945011CFCFCF93DF93EC0188
:1026C0000E94D607CE010E94CE15EC010E94A80AF6
:1026D000209769F4259A2D9A2FEF80E792E02150F8
:1026E00080409040E1F700C000001D9AF5CFCE0178
:1026F000DF91CF9108957F928F929F92AF92BF9278
:10270000CF92DF92EF92FF920F931F93CF93DF93BD
:10271000982EA92E762E872E7A01B22ECA010E94FB
:102720005D136C01892B09F4F2C088E290E00E94ED
:102730005D13EC01892B09F4E7C0D88ECF8AA7017D
:1027400065EA70E0C6010E94A01981E0E81AF1086C
:10275000EF89F88DEE0DFF1D672D782DCE0149967E
:102760009B01285F3F4FDB014D91BD01DC014D9383
:10277000CD01AB0141505109DA014C91442319F0CC
:102780006217730781F718A2BE8AB9A21AA21B8624
:102790001A861D8A1C8AD987C88784E090E08B1925
:1027A00091099D878C87DB8BCA8B84E09E012D5D10
:1027B0003F4FD9011D928A95E9F71FA29082DF0150
:1027C0001197AC9211971C92119780E88C931197F6
:1027D0001C9257971C9211971C92B397F983E88328
:1027E0000115110519F0F801D183C0830FB6F894D3
:1027F0000F928091E5018F5F8093E50180917601D2
:1028000090917701892B09F091C0D0937701C09303
:1028100076018091E501813081F586E892E00E94A1
:10282000AC098FE892E00E94AC0988E992E00E942E
:10283000AC0981EA92E00E94AC098AED91E00E9425
:10284000AC0981ED91E00E94AC0988EC91E00E9416
:10285000AC098FEB91E00E94AC0986EB91E00E94FD
:10286000AC098AED91E09093B5018093B40181EDBC
:1028700091E09093B3018093B2018091E3018F5F67
:102880008093E301AE898091AA028A1710F4A09385
:10289000AA0229E02A9FD0011124AA57BD4F119600
:1028A0000D90BC91A02DBD83AC8314968D919C910D
:1028B00015979F838E831496ED91FC911597CE0109
:1028C00002969383828315969C938E931497EE8938
:1028D000E29FF0011124EA57FD4FFB87EA878081D0
:1028E0008F5F80830F900FBE8091E401882351F0A9
:1028F000E0917601F091770196898E89981710F40E
:102900000E94EA0981E004C0C6010E9450118FEFC5
:10291000DF91CF911F910F91FF90EF90DF90CF90BB
:10292000BF90AF909F908F907F9008958091E40129
:102930008111A3CFE0917601F091770196898E897C
:10294000891708F49ACFD0937701C093760195CF79
:102950000E94870F1895789484B5826084BD84B5F1
:10296000816084BD85B5826085BD85B5816085BD8A
:1029700080916E00816080936E0010928100809142
:1029800081008260809381008091810081608093CA
:102990008100809180008160809380008091B100EF
:1029A00084608093B1008091B00081608093B0001A
:1029B00080917A00846080937A0080917A008260AE
:1029C00080937A0080917A00816080937A00809170
:1029D0007A00806880937A001092C10020910901EA
:1029E00030910A018FEF98E0821B930B90930601C0
:1029F000809305010E94BA0500EB11E020E040EC55
:102A000050E069E671E08AE293E10E947B13813035
:102A100009F08CC00FB6F8940F928091AC019091A0
:102A2000AD01892B49F581EA91E00E94AC0988E962
:102A300091E00E94AC0981EA91E090939701809324
:102A4000960188E991E0909395018093940181E546
:102A500090E00E945D13EC01009751F04F9699832E
:102A600088838AE08B8F85E08C8FCE010E94BA0923
:102A7000D093AD01C093AC010F900FBE8091AC011B
:102A80009091AD01892B09F451C00AEA11E023E0CD
:102A900045E550E06EE671E081E691E10E947B132E
:102AA000813009F043C0F8942FEF3FEF3093AF012E
:102AB0002093AE018093E40110928402109283026D
:102AC000A89588E190EC0FB6F894A89580936000E3
:102AD0000FBE90936000A0917601B0917701CD91E7
:102AE000CDBFDD91DEBFFF91EF91DF91CF91BF911F
:102AF000AF919F918F917F916F915F914F913F9196
:102B00002F911F910F91FF90EF90DF90CF90BF908A
:102B1000AF909F908F907F906F905F904F903F907D
:102B20002F901F900F900FBE0F9008958091040179
:102B30000E94BA05C0E0D0E02097F1F30E94430163
:102B4000FBCFE6EEF1E01382128288EE93E0A0E084
:102B5000B0E084839583A683B7838FE091E091836F
:102B6000808385EC90E09587848784EC90E097875C
:102B7000868780EC90E0918B808B81EC90E0938B4A
:102B8000828B82EC90E0958B848B86EC90E0978B27
:102B9000868B118E128E138E148E08950F931F93B1
:102BA000CF93DF938230910510F482E090E0E091C2
:102BB000AD02F091AE0230E020E0B0E0A0E030974E
:102BC00099F42115310509F44AC0281B390B24302A
:102BD0003105D8F58A819B816115710589F1FB0169
:102BE00093838283FE0111C0408151810281138150
:102BF00048175907E0F04817590799F4109761F002
:102C000012960C93129713961C933296CF01DF9174
:102C1000CF911F910F9108950093AD021093AE02D2
:102C2000F4CF2115310551F04217530738F0A901AF
:102C3000DB019A01BD01DF01F801C1CFEF01F9CF3E
:102C40009093AE028093AD02CDCFFE01E20FF31F51
:102C5000819391932250310939832883D7CF2091D2
:102C6000AB023091AC02232B41F42091070130914B
:102C700008013093AC022093AB0220910501309102
:102C800006012115310541F42DB73EB740910901E8
:102C900050910A01241B350BE091AB02F091AC027C
:102CA000E217F307A0F42E1B3F0B2817390778F023
:102CB000AC014E5F5F4F2417350748F04E0F5F1F82
:102CC0005093AC024093AB02819391939FCFF0E07D
:102CD000E0E09CCFCF93DF930097E9F0FC013297BF
:102CE00013821282A091AD02B091AE02ED0130E0EC
:102CF00020E01097A1F420813181820F931F209151
:102D0000AB023091AC022817390709F061C0F0938B
:102D1000AC02E093AB02DF91CF910895EA01CE17A8
:102D2000DF07E8F54A815B819E0141155105B1F746
:102D3000E901FB83EA8349915991C40FD51FEC1730
:102D4000FD0761F4808191810296840F951FE9014E
:102D500099838883828193819B838A83F0E0E0E07A
:102D600012968D919C9113970097B9F52D913C91F6
:102D70001197CD010296820F931F2091AB023091E3
:102D8000AC022817390739F6309751F51092AE0288
:102D90001092AD02B093AC02A093AB02BCCFD38330
:102DA000C28340815181840F951FC817D90761F4F0
:102DB0004E5F5F4F88819981480F591F518340832F
:102DC0008A819B81938382832115310509F0B0CFDD
:102DD000F093AE02E093AD029ECFFD01DC01C0CFC7
:102DE00013821282D7CF052E97FB1EF400940E9407
:102DF0000A1757FD07D00E941D1707FC03D04EF499
:102E00000C940A1750954095309521953F4F4F4FA0
:102E10005F4F089590958095709561957F4F8F4F86
:102E20009F4F08950E943F17A59F900DB49F900D4E
:102E3000A49F800D911D11240895A1E21A2EAA1BB2
:102E4000BB1BFD010DC0AA1FBB1FEE1FFF1FA2175A
:102E5000B307E407F50720F0A21BB30BE40BF50B57
:102E6000661F771F881F991F1A9469F760957095E0
:102E7000809590959B01AC01BD01CF010895A29F63
:102E8000B001B39FC001A39F700D811D1124911D3E
:102E9000B29F700D811D1124911D08955058BB27BC
:102EA000AA270E9466170C94E0180E94D21838F0E6
:102EB0000E94D91820F039F49F3F19F426F40C949D
:102EC000CF180EF4E095E7FB0C94C918E92F0E9487
:102ED000F11858F3BA17620773078407950720F0B3
:102EE00079F4A6F50C9413190EF4E0950B2EBA2F75
:102EF000A02D0B01B90190010C01CA01A001112400
:102F0000FF27591B99F0593F50F4503E68F11A16AB
:102F1000F040A22F232F342F4427585FF3CF46953C
:102F200037952795A795F0405395C9F77EF41F165E
:102F3000BA0B620B730B840BBAF09150A1F0FF0F28
:102F4000BB1F661F771F881FC2F70EC0BA0F621F14
:102F5000731F841F48F4879577956795B795F79504
:102F60009E3F08F0B0CF9395880F08F09927EE0F99
:102F70009795879508950E94A51808F481E0089513
:102F80000E94D4170C94E0180E94D91858F00E949F
:102F9000D21840F029F45F3F29F00C94C918511160
:102FA0000C9414190C94CF180E94F11868F399230B
:102FB000B1F3552391F3951B550BBB27AA27621735
:102FC0007307840738F09F5F5F4F220F331F441F42
:102FD000AA1FA9F335D00E2E3AF0E0E832D0915076
:102FE0005040E695001CCAF72BD0FE2F29D0660F63
:102FF000771F881FBB1F261737074807AB07B0E8A6
:1030000009F0BB0B802DBF01FF2793585F4F3AF0AB
:103010009E3F510578F00C94C9180C9414195F3F29
:10302000E4F3983ED4F3869577956795B795F79531
:103030009F5FC9F7880F911D9695879597F9089519
:10304000E1E0660F771F881FBB1F621773078407B5
:10305000BA0720F0621B730B840BBA0BEE1F88F7C4
:10306000E09508950E9439186894B1110C941419D0
:1030700008950E94F91888F09F5798F0B92F992762
:10308000B751B0F0E1F0660F771F881F991F1AF053
:10309000BA95C9F714C0B13091F00E941319B1E08C
:1030A00008950C941319672F782F8827B85F39F08B
:1030B000B93FCCF3869577956795B395D9F73EF4EC
:1030C00090958095709561957F4F8F4F9F4F089594
:1030D000E89409C097FB3EF49095809570956195B2
:1030E0007F4F8F4F9F4F9923A9F0F92F96E9BB2768
:1030F0009395F695879577956795B795F111F8CFE4
:10310000FAF4BB0F11F460FF1BC06F5F7F4F8F4F4E
:103110009F4F16C0882311F096E911C0772321F044
:103120009EE8872F762F05C0662371F096E8862FDC
:1031300070E060E02AF09A95660F771F881FDAF733
:10314000880F9695879597F90895990F0008550F60
:10315000AA0BE0E8FEEF16161706E807F907C0F01D
:1031600012161306E407F50798F0621B730B840B25
:10317000950B39F40A2661F0232B242B252B21F4FF
:1031800008950A2609F4A140A6958FEF811D811D9F
:10319000089597F99F6780E870E060E008959FEFD9
:1031A00080EC089500240A941616170618060906DE
:1031B000089500240A9412161306140605060895AD
:1031C000092E0394000C11F4882352F0BB0F40F435
:1031D000BF2B11F460FF04C06F5F7F4F8F4F9F4F75
:1031E000089557FD9058440F551F59F05F3F71F0F7
:1031F0004795880F97FB991F61F09F3F79F087955E
:103200000895121613061406551FF2CF4695F1DFE6
:1032100008C0161617061806991FF1CF8695710576
:10322000610508940895E894BB2766277727CB01AA
:1032300097F908950E94A51808F48FEF08950E9449
:1032400032190C94E0180E94D21838F00E94D91854
:1032500020F0952311F00C94C9180C94CF18112468
:103260000C9414190E94F11870F3959FC1F3950FF7
:1032700050E0551F629FF001729FBB27F00DB11DFA
:10328000639FAA27F00DB11DAA1F649F6627B00D8A
:10329000A11D661F829F2227B00DA11D621F739F73
:1032A000B00DA11D621F839FA00D611D221F749F81
:1032B0003327A00D611D231F849F600D211D822FC8
:1032C000762F6A2F11249F5750409AF0F1F08823EF
:1032D0004AF0EE0FFF1FBB1F661F771F881F91501C
:1032E0005040A9F79E3F510580F00C94C9180C94EA
:1032F00014195F3FE4F3983ED4F38695779567956C
:10330000B795F795E7959F5FC1F7FE2B880F911D45
:103310009695879597F908950E94A518880B990BA3
:103320000895EE0FFF1F0590F491E02D0994FB0125
:10333000DC0102C001900D9241505040D8F7089531
:10334000DC0101C06D9341505040E0F70895F894BE
:02335000FFCFAD
:103352000000F041030000AF028000000000007294
:1033620001CF00FC00BF012D010B011F016E616E38
:1033720000696E66006F76660050574D203D200052
:103382000D0A004572726F203D200054656D706514
:103392007261747572613A20004D757465782063AC
:1033A200726961646F00416E616C6F67526561643E
:1033B200005049440050574D0049444C4500546D5B
:0633C20072205376630047
:00000001FF
